{
  "_format": "hh-sol-artifact-1",
  "contractName": "Marketplace",
  "sourceName": "contracts/Marketplace.sol",
  "abi": [
    {
      "inputs": [
        {
          "internalType": "address",
          "name": "_owner",
          "type": "address"
        }
      ],
      "name": "getItemsByOwner",
      "outputs": [
        {
          "internalType": "uint256[]",
          "name": "",
          "type": "uint256[]"
        }
      ],
      "stateMutability": "view",
      "type": "function"
    },
    {
      "inputs": [],
      "name": "itemCount",
      "outputs": [
        {
          "internalType": "uint256",
          "name": "",
          "type": "uint256"
        }
      ],
      "stateMutability": "view",
      "type": "function"
    },
    {
      "inputs": [
        {
          "internalType": "uint256",
          "name": "",
          "type": "uint256"
        }
      ],
      "name": "items",
      "outputs": [
        {
          "internalType": "uint256",
          "name": "id",
          "type": "uint256"
        },
        {
          "internalType": "string",
          "name": "name",
          "type": "string"
        },
        {
          "internalType": "uint256",
          "name": "price",
          "type": "uint256"
        },
        {
          "internalType": "address payable",
          "name": "seller",
          "type": "address"
        },
        {
          "internalType": "address",
          "name": "owner",
          "type": "address"
        },
        {
          "internalType": "bool",
          "name": "isSold",
          "type": "bool"
        }
      ],
      "stateMutability": "view",
      "type": "function"
    },
    {
      "inputs": [
        {
          "internalType": "string",
          "name": "_name",
          "type": "string"
        },
        {
          "internalType": "uint256",
          "name": "_price",
          "type": "uint256"
        }
      ],
      "name": "listItem",
      "outputs": [],
      "stateMutability": "nonpayable",
      "type": "function"
    },
    {
      "inputs": [
        {
          "internalType": "address",
          "name": "",
          "type": "address"
        },
        {
          "internalType": "uint256",
          "name": "",
          "type": "uint256"
        }
      ],
      "name": "ownedItems",
      "outputs": [
        {
          "internalType": "uint256",
          "name": "",
          "type": "uint256"
        }
      ],
      "stateMutability": "view",
      "type": "function"
    },
    {
      "inputs": [
        {
          "internalType": "uint256",
          "name": "_id",
          "type": "uint256"
        }
      ],
      "name": "purchaseItem",
      "outputs": [],
      "stateMutability": "payable",
      "type": "function"
    },
    {
      "inputs": [
        {
          "internalType": "uint256",
          "name": "_id",
          "type": "uint256"
        },
        {
          "internalType": "address",
          "name": "_to",
          "type": "address"
        }
      ],
      "name": "transferItem",
      "outputs": [],
      "stateMutability": "nonpayable",
      "type": "function"
    }
  ],
  "bytecode": "0x60806040526000805534801561001457600080fd5b506116e4806100246000396000f3fe6080604052600436106100705760003560e01c80638511c9371161004e5780638511c9371461011a578063a422910114610143578063bfb231d21461016c578063d38ea5bf146101ae57610070565b80632c67a8e51461007557806342846534146100b25780636bfb0d01146100ef575b600080fd5b34801561008157600080fd5b5061009c60048036038101906100979190610b51565b6101ca565b6040516100a99190610c46565b60405180910390f35b3480156100be57600080fd5b506100d960048036038101906100d49190610c94565b610261565b6040516100e69190610ce3565b60405180910390f35b3480156100fb57600080fd5b50610104610292565b6040516101119190610ce3565b60405180910390f35b34801561012657600080fd5b50610141600480360381019061013c9190610e44565b610298565b005b34801561014f57600080fd5b5061016a60048036038101906101659190610ea0565b6104ab565b005b34801561017857600080fd5b50610193600480360381019061018e9190610ee0565b6105b5565b6040516101a596959493929190610fd7565b60405180910390f35b6101c860048036038101906101c39190610ee0565b6106c6565b005b6060600260008373ffffffffffffffffffffffffffffffffffffffff1673ffffffffffffffffffffffffffffffffffffffff16815260200190815260200160002080548060200260200160405190810160405280929190818152602001828054801561025557602002820191906000526020600020905b815481526020019060010190808311610241575b50505050509050919050565b6002602052816000526040600020818154811061027d57600080fd5b90600052602060002001600091509150505481565b60005481565b600081116102db576040517f08c379a00000000000000000000000000000000000000000000000000000000081526004016102d29061108b565b60405180910390fd5b6000808154809291906102ed906110da565b91905055506040518060c0016040528060005481526020018381526020018281526020013373ffffffffffffffffffffffffffffffffffffffff1681526020013373ffffffffffffffffffffffffffffffffffffffff168152602001600015158152506001600080548152602001908152602001600020600082015181600001556020820151816001019081610383919061132e565b506040820151816002015560608201518160030160006101000a81548173ffffffffffffffffffffffffffffffffffffffff021916908373ffffffffffffffffffffffffffffffffffffffff16021790555060808201518160040160006101000a81548173ffffffffffffffffffffffffffffffffffffffff021916908373ffffffffffffffffffffffffffffffffffffffff16021790555060a08201518160040160146101000a81548160ff021916908315150217905550905050600260003373ffffffffffffffffffffffffffffffffffffffff1673ffffffffffffffffffffffffffffffffffffffff16815260200190815260200160002060005490806001815401808255809150506001900390600052602060002001600090919091909150555050565b60006001600084815260200190815260200160002090506000831180156104d457506000548311155b610513576040517f08c379a000000000000000000000000000000000000000000000000000000000815260040161050a9061144c565b60405180910390fd5b8060040160009054906101000a900473ffffffffffffffffffffffffffffffffffffffff1673ffffffffffffffffffffffffffffffffffffffff163373ffffffffffffffffffffffffffffffffffffffff16146105a5576040517f08c379a000000000000000000000000000000000000000000000000000000000815260040161059c906114b8565b60405180910390fd5b6105b0833384610913565b505050565b60016020528060005260406000206000915090508060000154908060010180546105de90611151565b80601f016020809104026020016040519081016040528092919081815260200182805461060a90611151565b80156106575780601f1061062c57610100808354040283529160200191610657565b820191906000526020600020905b81548152906001019060200180831161063a57829003601f168201915b5050505050908060020154908060030160009054906101000a900473ffffffffffffffffffffffffffffffffffffffff16908060040160009054906101000a900473ffffffffffffffffffffffffffffffffffffffff16908060040160149054906101000a900460ff16905086565b60006001600083815260200190815260200160002090506000821180156106ef57506000548211155b61072e576040517f08c379a00000000000000000000000000000000000000000000000000000000081526004016107259061144c565b60405180910390fd5b80600201543414610774576040517f08c379a000000000000000000000000000000000000000000000000000000000815260040161076b90611524565b60405180910390fd5b8060040160149054906101000a900460ff16156107c6576040517f08c379a00000000000000000000000000000000000000000000000000000000081526004016107bd90611590565b60405180910390fd5b8060030160009054906101000a900473ffffffffffffffffffffffffffffffffffffffff1673ffffffffffffffffffffffffffffffffffffffff163373ffffffffffffffffffffffffffffffffffffffff1603610858576040517f08c379a000000000000000000000000000000000000000000000000000000000815260040161084f906115fc565b60405180910390fd5b60018160040160146101000a81548160ff0219169083151502179055508060030160009054906101000a900473ffffffffffffffffffffffffffffffffffffffff1673ffffffffffffffffffffffffffffffffffffffff166108fc349081150290604051600060405180830381858888f193505050501580156108df573d6000803e3d6000fd5b5061090f828260030160009054906101000a900473ffffffffffffffffffffffffffffffffffffffff1633610913565b5050565b6000600160008581526020019081526020016000209050818160040160006101000a81548173ffffffffffffffffffffffffffffffffffffffff021916908373ffffffffffffffffffffffffffffffffffffffff1602179055506000600260008573ffffffffffffffffffffffffffffffffffffffff1673ffffffffffffffffffffffffffffffffffffffff168152602001908152602001600020905060005b8180549050811015610a7157858282815481106109d3576109d261161c565b5b906000526020600020015403610a5e5781600183805490506109f5919061164b565b81548110610a0657610a0561161c565b5b9060005260206000200154828281548110610a2457610a2361161c565b5b906000526020600020018190555081805480610a4357610a4261167f565b5b60019003818190600052602060002001600090559055610a71565b8080610a69906110da565b9150506109b3565b50600260008473ffffffffffffffffffffffffffffffffffffffff1673ffffffffffffffffffffffffffffffffffffffff1681526020019081526020016000208590806001815401808255809150506001900390600052602060002001600090919091909150555050505050565b6000604051905090565b600080fd5b600080fd5b600073ffffffffffffffffffffffffffffffffffffffff82169050919050565b6000610b1e82610af3565b9050919050565b610b2e81610b13565b8114610b3957600080fd5b50565b600081359050610b4b81610b25565b92915050565b600060208284031215610b6757610b66610ae9565b5b6000610b7584828501610b3c565b91505092915050565b600081519050919050565b600082825260208201905092915050565b6000819050602082019050919050565b6000819050919050565b610bbd81610baa565b82525050565b6000610bcf8383610bb4565b60208301905092915050565b6000602082019050919050565b6000610bf382610b7e565b610bfd8185610b89565b9350610c0883610b9a565b8060005b83811015610c39578151610c208882610bc3565b9750610c2b83610bdb565b925050600181019050610c0c565b5085935050505092915050565b60006020820190508181036000830152610c608184610be8565b905092915050565b610c7181610baa565b8114610c7c57600080fd5b50565b600081359050610c8e81610c68565b92915050565b60008060408385031215610cab57610caa610ae9565b5b6000610cb985828601610b3c565b9250506020610cca85828601610c7f565b9150509250929050565b610cdd81610baa565b82525050565b6000602082019050610cf86000830184610cd4565b92915050565b600080fd5b600080fd5b6000601f19601f8301169050919050565b7f4e487b7100000000000000000000000000000000000000000000000000000000600052604160045260246000fd5b610d5182610d08565b810181811067ffffffffffffffff82111715610d7057610d6f610d19565b5b80604052505050565b6000610d83610adf565b9050610d8f8282610d48565b919050565b600067ffffffffffffffff821115610daf57610dae610d19565b5b610db882610d08565b9050602081019050919050565b82818337600083830152505050565b6000610de7610de284610d94565b610d79565b905082815260208101848484011115610e0357610e02610d03565b5b610e0e848285610dc5565b509392505050565b600082601f830112610e2b57610e2a610cfe565b5b8135610e3b848260208601610dd4565b91505092915050565b60008060408385031215610e5b57610e5a610ae9565b5b600083013567ffffffffffffffff811115610e7957610e78610aee565b5b610e8585828601610e16565b9250506020610e9685828601610c7f565b9150509250929050565b60008060408385031215610eb757610eb6610ae9565b5b6000610ec585828601610c7f565b9250506020610ed685828601610b3c565b9150509250929050565b600060208284031215610ef657610ef5610ae9565b5b6000610f0484828501610c7f565b91505092915050565b600081519050919050565b600082825260208201905092915050565b60005b83811015610f47578082015181840152602081019050610f2c565b60008484015250505050565b6000610f5e82610f0d565b610f688185610f18565b9350610f78818560208601610f29565b610f8181610d08565b840191505092915050565b6000610f9782610af3565b9050919050565b610fa781610f8c565b82525050565b610fb681610b13565b82525050565b60008115159050919050565b610fd181610fbc565b82525050565b600060c082019050610fec6000830189610cd4565b8181036020830152610ffe8188610f53565b905061100d6040830187610cd4565b61101a6060830186610f9e565b6110276080830185610fad565b61103460a0830184610fc8565b979650505050505050565b7f5072696365206d7573742062652067726561746572207468616e207a65726f00600082015250565b6000611075601f83610f18565b91506110808261103f565b602082019050919050565b600060208201905081810360008301526110a481611068565b9050919050565b7f4e487b7100000000000000000000000000000000000000000000000000000000600052601160045260246000fd5b60006110e582610baa565b91507fffffffffffffffffffffffffffffffffffffffffffffffffffffffffffffffff8203611117576111166110ab565b5b600182019050919050565b7f4e487b7100000000000000000000000000000000000000000000000000000000600052602260045260246000fd5b6000600282049050600182168061116957607f821691505b60208210810361117c5761117b611122565b5b50919050565b60008190508160005260206000209050919050565b60006020601f8301049050919050565b600082821b905092915050565b6000600883026111e47fffffffffffffffffffffffffffffffffffffffffffffffffffffffffffffffff826111a7565b6111ee86836111a7565b95508019841693508086168417925050509392505050565b6000819050919050565b600061122b61122661122184610baa565b611206565b610baa565b9050919050565b6000819050919050565b61124583611210565b61125961125182611232565b8484546111b4565b825550505050565b600090565b61126e611261565b61127981848461123c565b505050565b5b8181101561129d57611292600082611266565b60018101905061127f565b5050565b601f8211156112e2576112b381611182565b6112bc84611197565b810160208510156112cb578190505b6112df6112d785611197565b83018261127e565b50505b505050565b600082821c905092915050565b6000611305600019846008026112e7565b1980831691505092915050565b600061131e83836112f4565b9150826002028217905092915050565b61133782610f0d565b67ffffffffffffffff8111156113505761134f610d19565b5b61135a8254611151565b6113658282856112a1565b600060209050601f8311600181146113985760008415611386578287015190505b6113908582611312565b8655506113f8565b601f1984166113a686611182565b60005b828110156113ce578489015182556001820191506020850194506020810190506113a9565b868310156113eb57848901516113e7601f8916826112f4565b8355505b6001600288020188555050505b505050505050565b7f4974656d20646f6573206e6f7420657869737400000000000000000000000000600082015250565b6000611436601383610f18565b915061144182611400565b602082019050919050565b6000602082019050818103600083015261146581611429565b9050919050565b7f596f7520646f206e6f74206f776e2074686973206974656d0000000000000000600082015250565b60006114a2601883610f18565b91506114ad8261146c565b602082019050919050565b600060208201905081810360008301526114d181611495565b9050919050565b7f496e636f72726563742070726963650000000000000000000000000000000000600082015250565b600061150e600f83610f18565b9150611519826114d8565b602082019050919050565b6000602082019050818103600083015261153d81611501565b9050919050565b7f4974656d20616c726561647920736f6c64000000000000000000000000000000600082015250565b600061157a601183610f18565b915061158582611544565b602082019050919050565b600060208201905081810360008301526115a98161156d565b9050919050565b7f53656c6c65722063616e6e6f7420627579207468656972206f776e206974656d600082015250565b60006115e6602083610f18565b91506115f1826115b0565b602082019050919050565b60006020820190508181036000830152611615816115d9565b9050919050565b7f4e487b7100000000000000000000000000000000000000000000000000000000600052603260045260246000fd5b600061165682610baa565b915061166183610baa565b9250828203905081811115611679576116786110ab565b5b92915050565b7f4e487b7100000000000000000000000000000000000000000000000000000000600052603160045260246000fdfea2646970667358221220a3f18538d2fafc8bc8d90977e2e5e8d717f8b9148f53b5f5d986a8c7f467320664736f6c63430008130033",
  "linkReferences": {},
  "deployedLinkReferences": {}
}